{
  "contractName": "Sign",
  "abi": [
    {
      "constant": true,
      "inputs": [
        {
          "name": "",
          "type": "bytes32"
        }
      ],
      "name": "hashDocuments",
      "outputs": [
        {
          "name": "",
          "type": "bool"
        }
      ],
      "payable": false,
      "stateMutability": "view",
      "type": "function",
      "signature": "0x13fa2c33"
    },
    {
      "constant": true,
      "inputs": [
        {
          "name": "",
          "type": "bytes32"
        },
        {
          "name": "",
          "type": "address"
        }
      ],
      "name": "documentComments",
      "outputs": [
        {
          "name": "",
          "type": "string"
        }
      ],
      "payable": false,
      "stateMutability": "view",
      "type": "function",
      "signature": "0x1e1f3a76"
    },
    {
      "constant": true,
      "inputs": [
        {
          "name": "",
          "type": "bytes32"
        },
        {
          "name": "",
          "type": "address"
        }
      ],
      "name": "hashValidatorUser",
      "outputs": [
        {
          "name": "",
          "type": "bool"
        }
      ],
      "payable": false,
      "stateMutability": "view",
      "type": "function",
      "signature": "0x24cff8a5"
    },
    {
      "constant": true,
      "inputs": [
        {
          "name": "",
          "type": "bytes32"
        },
        {
          "name": "",
          "type": "uint256"
        }
      ],
      "name": "documentValidators",
      "outputs": [
        {
          "name": "",
          "type": "address"
        }
      ],
      "payable": false,
      "stateMutability": "view",
      "type": "function",
      "signature": "0x2ee69a47"
    },
    {
      "constant": true,
      "inputs": [
        {
          "name": "",
          "type": "bytes32"
        }
      ],
      "name": "hashOwner",
      "outputs": [
        {
          "name": "",
          "type": "address"
        }
      ],
      "payable": false,
      "stateMutability": "view",
      "type": "function",
      "signature": "0x55d53b6d"
    },
    {
      "anonymous": false,
      "inputs": [
        {
          "indexed": false,
          "name": "hashDocument",
          "type": "bytes32"
        },
        {
          "indexed": false,
          "name": "minter",
          "type": "address"
        }
      ],
      "name": "DocumentAdded",
      "type": "event",
      "signature": "0xdbfa39e1690eb55308046a0453096b664b994ffbbd01e9a81be622d3ce8d8166"
    },
    {
      "constant": false,
      "inputs": [
        {
          "name": "hashDocument",
          "type": "bytes32"
        }
      ],
      "name": "newDocument",
      "outputs": [
        {
          "name": "added",
          "type": "bool"
        }
      ],
      "payable": false,
      "stateMutability": "nonpayable",
      "type": "function",
      "signature": "0x2847a7af"
    },
    {
      "constant": false,
      "inputs": [
        {
          "name": "hashDocument",
          "type": "bytes32"
        },
        {
          "name": "user",
          "type": "address"
        }
      ],
      "name": "addValidatorUser",
      "outputs": [
        {
          "name": "added",
          "type": "bool"
        }
      ],
      "payable": false,
      "stateMutability": "nonpayable",
      "type": "function",
      "signature": "0xe9eb367a"
    }
  ],
  "bytecode": "0x608060405234801561001057600080fd5b506105cc806100206000396000f3fe608060405234801561001057600080fd5b506004361061007d5760003560e01c80632847a7af1161005b5780632847a7af146101805780632ee69a471461019d57806355d53b6d146101dc578063e9eb367a146101f95761007d565b806313fa2c33146100825780631e1f3a76146100b357806324cff8a514610154575b600080fd5b61009f6004803603602081101561009857600080fd5b5035610225565b604080519115158252519081900360200190f35b6100df600480360360408110156100c957600080fd5b50803590602001356001600160a01b031661023a565b6040805160208082528351818301528351919283929083019185019080838360005b83811015610119578181015183820152602001610101565b50505050905090810190601f1680156101465780820380516001836020036101000a031916815260200191505b509250505060405180910390f35b61009f6004803603604081101561016a57600080fd5b50803590602001356001600160a01b03166102de565b61009f6004803603602081101561019657600080fd5b50356102fe565b6101c0600480360360408110156101b357600080fd5b508035906020013561038b565b604080516001600160a01b039092168252519081900360200190f35b6101c0600480360360208110156101f257600080fd5b50356103c2565b61009f6004803603604081101561020f57600080fd5b50803590602001356001600160a01b03166103dd565b60006020819052908152604090205460ff1681565b60046020908152600092835260408084208252918352918190208054825160026001831615610100026000190190921691909104601f8101859004850282018501909352828152929091908301828280156102d65780601f106102ab576101008083540402835291602001916102d6565b820191906000526020600020905b8154815290600101906020018083116102b957829003601f168201915b505050505081565b600360209081526000928352604080842090915290825290205460ff1681565b6000610309826104e5565b156103165750600061034c565b50600081815260208181526040808320805460ff191660019081179091559182905290912080546001600160a01b031916331790555b6040805183815233602082015281517fdbfa39e1690eb55308046a0453096b664b994ffbbd01e9a81be622d3ce8d8166929181900390910190a1919050565b6002602052816000526040600020818154811015156103a657fe5b6000918252602090912001546001600160a01b03169150829050565b6001602052600090815260409020546001600160a01b031681565b60008281526020819052604081205460ff16801561041157506000838152600160205260409020546001600160a01b031633145b156104df5760008381526003602090815260408083206001600160a01b038616845290915290205460ff1615156104df5760008381526003602090815260408083206001600160a01b038616808552908352818420805460ff19166001908117909155878552600284528285208054918201815585528385200180546001600160a01b031916821790558151808301835260078152600160c81b6650656e64696e67028185019081528886526004855283862092865291909352922090516104d99290610505565b50600190505b92915050565b60008181526020819052604081205460ff1615610500575060015b919050565b828054600181600116156101000203166002900490600052602060002090601f016020900481019282601f1061054657805160ff1916838001178555610573565b82800160010185558215610573579182015b82811115610573578251825591602001919060010190610558565b5061057f929150610583565b5090565b61059d91905b8082111561057f5760008155600101610589565b9056fea165627a7a72305820106b573ab288bedbeed6808a0a0a5a301def318cc404e11b9b8776d121004b860029",
  "source": "pragma solidity 0.5.5;\n\ncontract Sign{\n\n  event DocumentAdded(bytes32 hashDocument, address minter);\n\n  mapping (bytes32 => bool) public hashDocuments;\n  mapping (bytes32 => address) public hashOwner;\n  mapping (bytes32 => address[]) public documentValidators;\n  mapping (bytes32 => mapping (address => bool)) public hashValidatorUser;\n  mapping (bytes32 => mapping (address => string)) public documentComments;\n\n  function newDocument(bytes32 hashDocument) public returns (bool added){\n    if (hashExists(hashDocument)){\n      added = false;\n    }\n    else{\n      hashDocuments[hashDocument] = true;\n      hashOwner[hashDocument] = msg.sender;\n      added = true;\n    }\n    emit DocumentAdded(hashDocument, msg.sender);\n    return added;\n  }\n\n  function hashExists(bytes32 hashDocument) private view returns (bool exists){\n    exists = false;\n    if (hashDocuments[hashDocument]) {\n      exists = true;\n    }\n    return exists;\n  }\n\n  function addValidatorUser(bytes32 hashDocument, address user) public returns (bool added){\n    added = false;\n    if (hashDocuments[hashDocument] && hashOwner[hashDocument] == msg.sender) {\n      if (!hashValidatorUser[hashDocument][user]) {\n        hashValidatorUser[hashDocument][user] = true;\n        documentValidators[hashDocument].push(user);\n        documentComments[hashDocument][user] = \"Pending\";\n        added = true;\n      }\n    }\n    return added;\n  }\n\n}\n",
  "sourcePath": "/home/alberto/tfm/sign_contract/contracts/Sign.sol",
  "compiler": {
    "name": "solc",
    "version": "0.5.5+commit.47a71e8f.Emscripten.clang"
  },
  "schemaVersion": "3.0.1",
  "updatedAt": "2019-05-05T12:15:31.563Z",
  "devdoc": {
    "methods": {}
  },
  "userdoc": {
    "methods": {}
  }
}