{
  "contractName": "Validator",
  "abi": [
    {
      "constant": true,
      "inputs": [
        {
          "name": "",
          "type": "bytes32"
        }
      ],
      "name": "hashDocuments",
      "outputs": [
        {
          "name": "",
          "type": "bool"
        }
      ],
      "payable": false,
      "stateMutability": "view",
      "type": "function",
      "signature": "0x13fa2c33"
    },
    {
      "constant": true,
      "inputs": [
        {
          "name": "",
          "type": "bytes32"
        },
        {
          "name": "",
          "type": "address"
        }
      ],
      "name": "documentComments",
      "outputs": [
        {
          "name": "",
          "type": "string"
        }
      ],
      "payable": false,
      "stateMutability": "view",
      "type": "function",
      "signature": "0x1e1f3a76"
    },
    {
      "constant": true,
      "inputs": [
        {
          "name": "",
          "type": "bytes32"
        },
        {
          "name": "",
          "type": "address"
        }
      ],
      "name": "hashValidatorUser",
      "outputs": [
        {
          "name": "",
          "type": "bool"
        }
      ],
      "payable": false,
      "stateMutability": "view",
      "type": "function",
      "signature": "0x24cff8a5"
    },
    {
      "constant": true,
      "inputs": [
        {
          "name": "",
          "type": "bytes32"
        },
        {
          "name": "",
          "type": "uint256"
        }
      ],
      "name": "documentValidators",
      "outputs": [
        {
          "name": "",
          "type": "address"
        }
      ],
      "payable": false,
      "stateMutability": "view",
      "type": "function",
      "signature": "0x2ee69a47"
    },
    {
      "constant": true,
      "inputs": [
        {
          "name": "",
          "type": "bytes32"
        }
      ],
      "name": "hashOwner",
      "outputs": [
        {
          "name": "",
          "type": "address"
        }
      ],
      "payable": false,
      "stateMutability": "view",
      "type": "function",
      "signature": "0x55d53b6d"
    },
    {
      "anonymous": false,
      "inputs": [
        {
          "indexed": false,
          "name": "hashDocument",
          "type": "bytes32"
        },
        {
          "indexed": false,
          "name": "minter",
          "type": "address"
        }
      ],
      "name": "DocumentAdded",
      "type": "event",
      "signature": "0xdbfa39e1690eb55308046a0453096b664b994ffbbd01e9a81be622d3ce8d8166"
    },
    {
      "anonymous": false,
      "inputs": [
        {
          "indexed": false,
          "name": "hashDocument",
          "type": "bytes32"
        },
        {
          "indexed": false,
          "name": "user",
          "type": "address"
        }
      ],
      "name": "NewInvitation",
      "type": "event",
      "signature": "0x1ad3d870cac386a63145d4fdf6f7dee8a5d9b7c7a04d8b74180f2cc48b47b4ce"
    },
    {
      "anonymous": false,
      "inputs": [
        {
          "indexed": false,
          "name": "hashDocument",
          "type": "bytes32"
        },
        {
          "indexed": false,
          "name": "user",
          "type": "address"
        },
        {
          "indexed": false,
          "name": "comment",
          "type": "string"
        }
      ],
      "name": "ActionAdded",
      "type": "event",
      "signature": "0x8e859c406054c5af73137946ffde0bfdfff4d4cb1d9919f29c4e95bdb76ad50e"
    },
    {
      "constant": false,
      "inputs": [
        {
          "name": "hashDocument",
          "type": "bytes32"
        }
      ],
      "name": "newDocument",
      "outputs": [],
      "payable": false,
      "stateMutability": "nonpayable",
      "type": "function",
      "signature": "0x2847a7af"
    },
    {
      "constant": false,
      "inputs": [
        {
          "name": "hashDocument",
          "type": "bytes32"
        },
        {
          "name": "user",
          "type": "address"
        }
      ],
      "name": "addValidatorUser",
      "outputs": [],
      "payable": false,
      "stateMutability": "nonpayable",
      "type": "function",
      "signature": "0xe9eb367a"
    },
    {
      "constant": false,
      "inputs": [
        {
          "name": "hashDocument",
          "type": "bytes32"
        },
        {
          "name": "user",
          "type": "address"
        },
        {
          "name": "comment",
          "type": "string"
        }
      ],
      "name": "addValidationUser",
      "outputs": [],
      "payable": false,
      "stateMutability": "nonpayable",
      "type": "function",
      "signature": "0xd71b08d2"
    }
  ],
  "bytecode": "0x608060405234801561001057600080fd5b50610a17806100206000396000f3fe608060405234801561001057600080fd5b50600436106100885760003560e01c80632ee69a471161005b5780632ee69a47146101aa57806355d53b6d146101e9578063d71b08d214610206578063e9eb367a146102c157610088565b806313fa2c331461008d5780631e1f3a76146100be57806324cff8a51461015f5780632847a7af1461018b575b600080fd5b6100aa600480360360208110156100a357600080fd5b50356102ed565b604080519115158252519081900360200190f35b6100ea600480360360408110156100d457600080fd5b50803590602001356001600160a01b0316610302565b6040805160208082528351818301528351919283929083019185019080838360005b8381101561012457818101518382015260200161010c565b50505050905090810190601f1680156101515780820380516001836020036101000a031916815260200191505b509250505060405180910390f35b6100aa6004803603604081101561017557600080fd5b50803590602001356001600160a01b03166103a6565b6101a8600480360360208110156101a157600080fd5b50356103c6565b005b6101cd600480360360408110156101c057600080fd5b5080359060200135610493565b604080516001600160a01b039092168252519081900360200190f35b6101cd600480360360208110156101ff57600080fd5b50356104ca565b6101a86004803603606081101561021c57600080fd5b8135916001600160a01b036020820135169181019060608101604082013564010000000081111561024c57600080fd5b82018360208201111561025e57600080fd5b8035906020019184600183028401116401000000008311171561028057600080fd5b91908080601f0160208091040260200160405190810160405280939291908181526020018383808284376000920191909152509295506104e5945050505050565b6101a8600480360360408110156102d757600080fd5b50803590602001356001600160a01b03166106f7565b60006020819052908152604090205460ff1681565b60046020908152600092835260408084208252918352918190208054825160026001831615610100026000190190921691909104601f81018590048502820185019093528281529290919083018282801561039e5780601f106103735761010080835404028352916020019161039e565b820191906000526020600020905b81548152906001019060200180831161038157829003601f168201915b505050505081565b600360209081526000928352604080842090915290825290205460ff1681565b6103cf816108dd565b156104245760408051600160e51b62461bcd02815260206004820152601b60248201527f5468697320646f63756d656e7420616c72656164792065786973740000000000604482015290519081900360640190fd5b600081815260208181526040808320805460ff1916600190811790915582529182902080546001600160a01b0319163390811790915582518481529182015281517fdbfa39e1690eb55308046a0453096b664b994ffbbd01e9a81be622d3ce8d8166929181900390910190a150565b6002602052816000526040600020818154811015156104ae57fe5b6000918252602090912001546001600160a01b03169150829050565b6001602052600090815260409020546001600160a01b031681565b6104ee836108dd565b15156105445760408051600160e51b62461bcd02815260206004820152601c60248201527f5468697320646f63756d656e7420646f6573206e6f7420657869737400000000604482015290519081900360640190fd5b6000838152600160205260409020546001600160a01b03838116911614156105a057604051600160e51b62461bcd0281526004018080602001828103825260258152602001806109c76025913960400191505060405180910390fd5b60008381526003602090815260408083206001600160a01b038616845290915290205460ff16151561060657604051600160e51b62461bcd02815260040180806020018281038252602e815260200180610999602e913960400191505060405180910390fd5b60008381526004602090815260408083206001600160a01b038616845282529091208251610636928401906108fd565b507f8e859c406054c5af73137946ffde0bfdfff4d4cb1d9919f29c4e95bdb76ad50e83838360405180848152602001836001600160a01b03166001600160a01b0316815260200180602001828103825283818151815260200191508051906020019080838360005b838110156106b657818101518382015260200161069e565b50505050905090810190601f1680156106e35780820380516001836020036101000a031916815260200191505b5094505050505060405180910390a1505050565b610700826108dd565b15156107565760408051600160e51b62461bcd02815260206004820152601c60248201527f5468697320646f63756d656e7420646f6573206e6f7420657869737400000000604482015290519081900360640190fd5b6000828152600160205260409020546001600160a01b03828116911614156107b257604051600160e51b62461bcd0281526004018080602001828103825260258152602001806109c76025913960400191505060405180910390fd5b6000828152600160205260409020546001600160a01b03163314156108d95760008281526003602090815260408083206001600160a01b038516845290915290205460ff1615156108d95760008281526003602090815260408083206001600160a01b038516808552908352818420805460ff19166001908117909155868552600284528285208054918201815585528385200180546001600160a01b031916821790558151808301835260078152600160c81b6650656e64696e670281850190815287865260048552838620928652919093529220905161089492906108fd565b50604080518381526001600160a01b038316602082015281517f1ad3d870cac386a63145d4fdf6f7dee8a5d9b7c7a04d8b74180f2cc48b47b4ce929181900390910190a15b5050565b60008181526020819052604081205460ff16156108f8575060015b919050565b828054600181600116156101000203166002900490600052602060002090601f016020900481019282601f1061093e57805160ff191683800117855561096b565b8280016001018555821561096b579182015b8281111561096b578251825591602001919060010190610950565b5061097792915061097b565b5090565b61099591905b808211156109775760008155600101610981565b9056fe596f7520617265206e6f7420612076616c69646174696e672075736572206f66207468697320646f63756d656e74546865206f776e65722063616e206e6f7420626520612076616c696461746f722075736572a165627a7a72305820fb580910fc7e254e68ccefb858a537c42c562495b55b1d4bd8d3434d49882d8a0029",
  "source": "pragma solidity 0.5.5;\n\ncontract Validator{\n\n  event DocumentAdded(bytes32 hashDocument, address minter);\n  event NewInvitation(bytes32 hashDocument, address user);\n  event ActionAdded(bytes32 hashDocument, address user, string comment);\n\n  mapping (bytes32 => bool) public hashDocuments;\n  mapping (bytes32 => address) public hashOwner;\n  mapping (bytes32 => address[]) public documentValidators;\n  mapping (bytes32 => mapping (address => bool)) public hashValidatorUser;\n  mapping (bytes32 => mapping (address => string)) public documentComments;\n\n  function newDocument(bytes32 hashDocument) public {\n    require(!hashExists(hashDocument), 'This document already exist');\n    hashDocuments[hashDocument] = true;\n    hashOwner[hashDocument] = msg.sender;\n    emit DocumentAdded(hashDocument, msg.sender);\n  }\n\n  function hashExists(bytes32 hashDocument) private view returns (bool exists){\n    exists = false;\n    if (hashDocuments[hashDocument]) {\n      exists = true;\n    }\n    return exists;\n  }\n\n  function addValidatorUser(bytes32 hashDocument, address user) public {\n    require(hashExists(hashDocument), 'This document does not exist');\n    require(user != hashOwner[hashDocument], 'The owner can not be a validator user');\n    if (hashOwner[hashDocument] == msg.sender) {\n      if (!hashValidatorUser[hashDocument][user]) {\n        hashValidatorUser[hashDocument][user] = true;\n        documentValidators[hashDocument].push(user);\n        documentComments[hashDocument][user] = \"Pending\";\n        emit NewInvitation(hashDocument, user);\n      }\n    }\n  }\n\n  function addValidationUser(bytes32 hashDocument, address user, string memory comment) public {\n    require(hashExists(hashDocument), 'This document does not exist');\n    require(user != hashOwner[hashDocument], 'The owner can not be a validator user');\n    require(hashValidatorUser[hashDocument][user], 'You are not a validating user of this document');\n    documentComments[hashDocument][user] = comment;\n    emit ActionAdded(hashDocument, user, comment);\n  }\n\n}\n",
  "sourcePath": "/home/alberto/Test-1/validator_contract/contracts/Validator.sol",
  "compiler": {
    "name": "solc",
    "version": "0.5.5+commit.47a71e8f.Emscripten.clang"
  },
  "schemaVersion": "3.0.1",
  "updatedAt": "2019-07-02T16:36:56.494Z",
  "devdoc": {
    "methods": {}
  },
  "userdoc": {
    "methods": {}
  }
}